{
  "_format": "hh-sol-artifact-1",
  "contractName": "BeanzMarketplace",
  "sourceName": "contracts/BeanzMarketplace.sol",
  "abi": [
    {
      "anonymous": false,
      "inputs": [
        {
          "indexed": true,
          "internalType": "address",
          "name": "previousOwner",
          "type": "address"
        },
        {
          "indexed": true,
          "internalType": "address",
          "name": "newOwner",
          "type": "address"
        }
      ],
      "name": "OwnershipTransferred",
      "type": "event"
    },
    {
      "inputs": [],
      "name": "beanz",
      "outputs": [
        {
          "internalType": "contract IERC721",
          "name": "",
          "type": "address"
        }
      ],
      "stateMutability": "view",
      "type": "function"
    },
    {
      "inputs": [
        {
          "internalType": "uint256",
          "name": "",
          "type": "uint256"
        }
      ],
      "name": "beanzId",
      "outputs": [
        {
          "internalType": "uint256",
          "name": "",
          "type": "uint256"
        }
      ],
      "stateMutability": "view",
      "type": "function"
    },
    {
      "inputs": [],
      "name": "beanzInterface",
      "outputs": [
        {
          "internalType": "contract IBEANZ",
          "name": "",
          "type": "address"
        }
      ],
      "stateMutability": "view",
      "type": "function"
    },
    {
      "inputs": [
        {
          "internalType": "uint256",
          "name": "",
          "type": "uint256"
        }
      ],
      "name": "beanzOnSale",
      "outputs": [
        {
          "internalType": "uint256",
          "name": "price",
          "type": "uint256"
        },
        {
          "internalType": "address",
          "name": "owner",
          "type": "address"
        }
      ],
      "stateMutability": "view",
      "type": "function"
    },
    {
      "inputs": [
        {
          "internalType": "uint256",
          "name": "_tokenId",
          "type": "uint256"
        },
        {
          "internalType": "address",
          "name": "_to",
          "type": "address"
        }
      ],
      "name": "buyBeanz",
      "outputs": [],
      "stateMutability": "payable",
      "type": "function"
    },
    {
      "inputs": [],
      "name": "currentOnSale",
      "outputs": [
        {
          "internalType": "uint256",
          "name": "",
          "type": "uint256"
        }
      ],
      "stateMutability": "view",
      "type": "function"
    },
    {
      "inputs": [
        {
          "internalType": "address",
          "name": "",
          "type": "address"
        },
        {
          "internalType": "address",
          "name": "from",
          "type": "address"
        },
        {
          "internalType": "uint256",
          "name": "",
          "type": "uint256"
        },
        {
          "internalType": "bytes",
          "name": "",
          "type": "bytes"
        }
      ],
      "name": "onERC721Received",
      "outputs": [
        {
          "internalType": "bytes4",
          "name": "",
          "type": "bytes4"
        }
      ],
      "stateMutability": "pure",
      "type": "function"
    },
    {
      "inputs": [],
      "name": "owner",
      "outputs": [
        {
          "internalType": "address",
          "name": "",
          "type": "address"
        }
      ],
      "stateMutability": "view",
      "type": "function"
    },
    {
      "inputs": [],
      "name": "renounceOwnership",
      "outputs": [],
      "stateMutability": "nonpayable",
      "type": "function"
    },
    {
      "inputs": [
        {
          "internalType": "uint256",
          "name": "_tokenId",
          "type": "uint256"
        },
        {
          "internalType": "uint256",
          "name": "_price",
          "type": "uint256"
        }
      ],
      "name": "sellBeanz",
      "outputs": [],
      "stateMutability": "nonpayable",
      "type": "function"
    },
    {
      "inputs": [
        {
          "internalType": "address",
          "name": "_beanzAddress",
          "type": "address"
        }
      ],
      "name": "setInterface",
      "outputs": [],
      "stateMutability": "nonpayable",
      "type": "function"
    },
    {
      "inputs": [
        {
          "internalType": "address",
          "name": "newOwner",
          "type": "address"
        }
      ],
      "name": "transferOwnership",
      "outputs": [],
      "stateMutability": "nonpayable",
      "type": "function"
    },
    {
      "stateMutability": "payable",
      "type": "receive"
    }
  ],
  "bytecode": "0x6080604052600060035534801561001557600080fd5b5061003261002761003760201b60201c565b61003f60201b60201c565b610103565b600033905090565b60008060009054906101000a900473ffffffffffffffffffffffffffffffffffffffff169050816000806101000a81548173ffffffffffffffffffffffffffffffffffffffff021916908373ffffffffffffffffffffffffffffffffffffffff1602179055508173ffffffffffffffffffffffffffffffffffffffff168173ffffffffffffffffffffffffffffffffffffffff167f8be0079c531659141344cd1fd0a4f28419497f9722a3daafe3b4186f6b6457e060405160405180910390a35050565b6115e6806101126000396000f3fe6080604052600436106100ab5760003560e01c80639e8770ae116100645780639e8770ae146101c8578063ad8a94b214610205578063b6a501ab14610230578063d4bf90ba1461024c578063e6899a1714610275578063f2fde38b146102a0576100b2565b8063150b7a02146100b7578063558a245d146100f45780635ab0a25f1461011f578063715018a61461015d5780638da5cb5b1461017457806397492c461461019f576100b2565b366100b257005b600080fd5b3480156100c357600080fd5b506100de60048036038101906100d99190610e93565b6102c9565b6040516100eb919061116e565b60405180910390f35b34801561010057600080fd5b506101096102de565b60405161011691906111a4565b60405180910390f35b34801561012b57600080fd5b5061014660048036038101906101419190610f13565b610304565b60405161015492919061127a565b60405180910390f35b34801561016957600080fd5b50610172610348565b005b34801561018057600080fd5b506101896103d0565b6040516101969190611109565b60405180910390f35b3480156101ab57600080fd5b506101c660048036038101906101c19190610e6a565b6103f9565b005b3480156101d457600080fd5b506101ef60048036038101906101ea9190610f13565b6104fa565b6040516101fc919061125f565b60405180910390f35b34801561021157600080fd5b5061021a61051e565b604051610227919061125f565b60405180910390f35b61024a60048036038101906102459190610f3c565b610524565b005b34801561025857600080fd5b50610273600480360381019061026e9190610f78565b6108b2565b005b34801561028157600080fd5b5061028a610aa7565b6040516102979190611189565b60405180910390f35b3480156102ac57600080fd5b506102c760048036038101906102c29190610e6a565b610acd565b005b600063150b7a0260e01b905095945050505050565b600160009054906101000a900473ffffffffffffffffffffffffffffffffffffffff1681565b60056020528060005260406000206000915090508060000154908060010160009054906101000a900473ffffffffffffffffffffffffffffffffffffffff16905082565b610350610bc5565b73ffffffffffffffffffffffffffffffffffffffff1661036e6103d0565b73ffffffffffffffffffffffffffffffffffffffff16146103c4576040517f08c379a00000000000000000000000000000000000000000000000000000000081526004016103bb906111df565b60405180910390fd5b6103ce6000610bcd565b565b60008060009054906101000a900473ffffffffffffffffffffffffffffffffffffffff16905090565b610401610bc5565b73ffffffffffffffffffffffffffffffffffffffff1661041f6103d0565b73ffffffffffffffffffffffffffffffffffffffff1614610475576040517f08c379a000000000000000000000000000000000000000000000000000000000815260040161046c906111df565b60405180910390fd5b80600160006101000a81548173ffffffffffffffffffffffffffffffffffffffff021916908373ffffffffffffffffffffffffffffffffffffffff16021790555080600260006101000a81548173ffffffffffffffffffffffffffffffffffffffff021916908373ffffffffffffffffffffffffffffffffffffffff16021790555050565b6004818154811061050a57600080fd5b906000526020600020016000915090505481565b60035481565b8073ffffffffffffffffffffffffffffffffffffffff166005600084815260200190815260200160002060010160009054906101000a900473ffffffffffffffffffffffffffffffffffffffff1673ffffffffffffffffffffffffffffffffffffffff1614156105c9576040517f08c379a00000000000000000000000000000000000000000000000000000000081526004016105c09061123f565b60405180910390fd5b6005600083815260200190815260200160002060000154341015610622576040517f08c379a00000000000000000000000000000000000000000000000000000000081526004016106199061121f565b60405180910390fd5b600160009054906101000a900473ffffffffffffffffffffffffffffffffffffffff1673ffffffffffffffffffffffffffffffffffffffff1663b88d4fde3033856040518463ffffffff1660e01b815260040161068193929190611124565b600060405180830381600087803b15801561069b57600080fd5b505af11580156106af573d6000803e3d6000fd5b50505050600260009054906101000a900473ffffffffffffffffffffffffffffffffffffffff1673ffffffffffffffffffffffffffffffffffffffff16633e901f0683836040518363ffffffff1660e01b815260040161071092919061127a565b600060405180830381600087803b15801561072a57600080fd5b505af115801561073e573d6000803e3d6000fd5b50505050600060053461075191906112d0565b9050600081346107619190611301565b90506000806005600087815260200190815260200160002060010160009054906101000a900473ffffffffffffffffffffffffffffffffffffffff1673ffffffffffffffffffffffffffffffffffffffff16836040516107c0906110f4565b60006040518083038185875af1925050503d80600081146107fd576040519150601f19603f3d011682016040523d82523d6000602084013e610802565b606091505b509150915081610847576040517f08c379a000000000000000000000000000000000000000000000000000000000815260040161083e906111ff565b60405180910390fd5b600560008781526020019081526020016000206000808201600090556001820160006101000a81549073ffffffffffffffffffffffffffffffffffffffff0219169055505061089586610c91565b60016003546108a49190611301565b600381905550505050505050565b600260009054906101000a900473ffffffffffffffffffffffffffffffffffffffff1673ffffffffffffffffffffffffffffffffffffffff16633f532271836040518263ffffffff1660e01b815260040161090d919061125f565b600060405180830381600087803b15801561092757600080fd5b505af115801561093b573d6000803e3d6000fd5b5050505060405180604001604052808281526020013373ffffffffffffffffffffffffffffffffffffffff16815250600560008481526020019081526020016000206000820151816000015560208201518160010160006101000a81548173ffffffffffffffffffffffffffffffffffffffff021916908373ffffffffffffffffffffffffffffffffffffffff160217905550905050600160009054906101000a900473ffffffffffffffffffffffffffffffffffffffff1673ffffffffffffffffffffffffffffffffffffffff1663b88d4fde3330856040518463ffffffff1660e01b8152600401610a3093929190611124565b600060405180830381600087803b158015610a4a57600080fd5b505af1158015610a5e573d6000803e3d6000fd5b50505050600482908060018154018082558091505060019003906000526020600020016000909190919091505560036000815480929190610a9e906113e5565b91905055505050565b600260009054906101000a900473ffffffffffffffffffffffffffffffffffffffff1681565b610ad5610bc5565b73ffffffffffffffffffffffffffffffffffffffff16610af36103d0565b73ffffffffffffffffffffffffffffffffffffffff1614610b49576040517f08c379a0000000000000000000000000000000000000000000000000000000008152600401610b40906111df565b60405180910390fd5b600073ffffffffffffffffffffffffffffffffffffffff168173ffffffffffffffffffffffffffffffffffffffff161415610bb9576040517f08c379a0000000000000000000000000000000000000000000000000000000008152600401610bb0906111bf565b60405180910390fd5b610bc281610bcd565b50565b600033905090565b60008060009054906101000a900473ffffffffffffffffffffffffffffffffffffffff169050816000806101000a81548173ffffffffffffffffffffffffffffffffffffffff021916908373ffffffffffffffffffffffffffffffffffffffff1602179055508173ffffffffffffffffffffffffffffffffffffffff168173ffffffffffffffffffffffffffffffffffffffff167f8be0079c531659141344cd1fd0a4f28419497f9722a3daafe3b4186f6b6457e060405160405180910390a35050565b6000805b600480549050811015610d05578260048281548110610cdd577f4e487b7100000000000000000000000000000000000000000000000000000000600052603260045260246000fd5b90600052602060002001541415610cf2578091505b8080610cfd906113e5565b915050610c95565b5060046001600480549050610d1a9190611301565b81548110610d51577f4e487b7100000000000000000000000000000000000000000000000000000000600052603260045260246000fd5b906000526020600020015460048281548110610d96577f4e487b7100000000000000000000000000000000000000000000000000000000600052603260045260246000fd5b90600052602060002001819055506004805480610ddc577f4e487b7100000000000000000000000000000000000000000000000000000000600052603160045260246000fd5b600190038181906000526020600020016000905590555050565b600081359050610e0581611582565b92915050565b60008083601f840112610e1d57600080fd5b8235905067ffffffffffffffff811115610e3657600080fd5b602083019150836001820283011115610e4e57600080fd5b9250929050565b600081359050610e6481611599565b92915050565b600060208284031215610e7c57600080fd5b6000610e8a84828501610df6565b91505092915050565b600080600080600060808688031215610eab57600080fd5b6000610eb988828901610df6565b9550506020610eca88828901610df6565b9450506040610edb88828901610e55565b935050606086013567ffffffffffffffff811115610ef857600080fd5b610f0488828901610e0b565b92509250509295509295909350565b600060208284031215610f2557600080fd5b6000610f3384828501610e55565b91505092915050565b60008060408385031215610f4f57600080fd5b6000610f5d85828601610e55565b9250506020610f6e85828601610df6565b9150509250929050565b60008060408385031215610f8b57600080fd5b6000610f9985828601610e55565b9250506020610faa85828601610e55565b9150509250929050565b610fbd81611335565b82525050565b610fcc81611347565b82525050565b610fdb8161139d565b82525050565b610fea816113c1565b82525050565b6000610ffd6026836112bf565b91506110088261148c565b604082019050919050565b60006110206020836112bf565b915061102b826114db565b602082019050919050565b6000611043600e836112bf565b915061104e82611504565b602082019050919050565b6000611066600b836112bf565b91506110718261152d565b602082019050919050565b6000611089601c836112bf565b915061109482611556565b602082019050919050565b60006110ac6000836112a3565b91506110b78261157f565b600082019050919050565b60006110cf6000836112b4565b91506110da8261157f565b600082019050919050565b6110ee81611393565b82525050565b60006110ff826110c2565b9150819050919050565b600060208201905061111e6000830184610fb4565b92915050565b60006080820190506111396000830186610fb4565b6111466020830185610fb4565b61115360408301846110e5565b81810360608301526111648161109f565b9050949350505050565b60006020820190506111836000830184610fc3565b92915050565b600060208201905061119e6000830184610fd2565b92915050565b60006020820190506111b96000830184610fe1565b92915050565b600060208201905081810360008301526111d881610ff0565b9050919050565b600060208201905081810360008301526111f881611013565b9050919050565b6000602082019050818103600083015261121881611036565b9050919050565b6000602082019050818103600083015261123881611059565b9050919050565b600060208201905081810360008301526112588161107c565b9050919050565b600060208201905061127460008301846110e5565b92915050565b600060408201905061128f60008301856110e5565b61129c6020830184610fb4565b9392505050565b600082825260208201905092915050565b600081905092915050565b600082825260208201905092915050565b60006112db82611393565b91506112e683611393565b9250826112f6576112f561145d565b5b828204905092915050565b600061130c82611393565b915061131783611393565b92508282101561132a5761132961142e565b5b828203905092915050565b600061134082611373565b9050919050565b60007fffffffff0000000000000000000000000000000000000000000000000000000082169050919050565b600073ffffffffffffffffffffffffffffffffffffffff82169050919050565b6000819050919050565b60006113a8826113af565b9050919050565b60006113ba82611373565b9050919050565b60006113cc826113d3565b9050919050565b60006113de82611373565b9050919050565b60006113f082611393565b91507fffffffffffffffffffffffffffffffffffffffffffffffffffffffffffffffff8214156114235761142261142e565b5b600182019050919050565b7f4e487b7100000000000000000000000000000000000000000000000000000000600052601160045260246000fd5b7f4e487b7100000000000000000000000000000000000000000000000000000000600052601260045260246000fd5b7f4f776e61626c653a206e6577206f776e657220697320746865207a65726f206160008201527f6464726573730000000000000000000000000000000000000000000000000000602082015250565b7f4f776e61626c653a2063616c6c6572206973206e6f7420746865206f776e6572600082015250565b7f4574686572206e6f742073656e74000000000000000000000000000000000000600082015250565b7f57726f6e67207072696365000000000000000000000000000000000000000000600082015250565b7f596f752063616e27742062757920796f7572206f776e206265616e7a00000000600082015250565b50565b61158b81611335565b811461159657600080fd5b50565b6115a281611393565b81146115ad57600080fd5b5056fea2646970667358221220940aec279fcb2c1d81d0b729bd639f3f201f8e2644fa30877ec028950c80d2df64736f6c63430008040033",
  "linkReferences": {},
  "deployedLinkReferences": {}
}