{
  "_format": "hh-sol-artifact-1",
  "contractName": "BeanzStaking",
  "sourceName": "contracts/BeanzStaking.sol",
  "abi": [
    {
      "inputs": [
        {
          "internalType": "address",
          "name": "",
          "type": "address"
        },
        {
          "internalType": "uint256",
          "name": "",
          "type": "uint256"
        }
      ],
      "name": "addressToStaked",
      "outputs": [
        {
          "internalType": "uint256",
          "name": "",
          "type": "uint256"
        }
      ],
      "stateMutability": "view",
      "type": "function"
    },
    {
      "inputs": [],
      "name": "beanz",
      "outputs": [
        {
          "internalType": "contract IERC721",
          "name": "",
          "type": "address"
        }
      ],
      "stateMutability": "view",
      "type": "function"
    },
    {
      "inputs": [
        {
          "internalType": "uint256",
          "name": "_tokenId",
          "type": "uint256"
        }
      ],
      "name": "beanzAdventure",
      "outputs": [],
      "stateMutability": "nonpayable",
      "type": "function"
    },
    {
      "inputs": [],
      "name": "beanzCustomize",
      "outputs": [
        {
          "internalType": "contract IBEANZ",
          "name": "",
          "type": "address"
        }
      ],
      "stateMutability": "view",
      "type": "function"
    },
    {
      "inputs": [
        {
          "internalType": "address",
          "name": "_user",
          "type": "address"
        },
        {
          "internalType": "uint256",
          "name": "_tokenId",
          "type": "uint256"
        }
      ],
      "name": "beanzGoHome",
      "outputs": [],
      "stateMutability": "nonpayable",
      "type": "function"
    },
    {
      "inputs": [
        {
          "internalType": "address",
          "name": "_user",
          "type": "address"
        },
        {
          "internalType": "uint256",
          "name": "_tokenId",
          "type": "uint256"
        }
      ],
      "name": "beanzLevelUp",
      "outputs": [],
      "stateMutability": "nonpayable",
      "type": "function"
    },
    {
      "inputs": [],
      "name": "nutInterface",
      "outputs": [
        {
          "internalType": "contract INUT",
          "name": "",
          "type": "address"
        }
      ],
      "stateMutability": "view",
      "type": "function"
    },
    {
      "inputs": [],
      "name": "nutToken",
      "outputs": [
        {
          "internalType": "contract IERC20",
          "name": "",
          "type": "address"
        }
      ],
      "stateMutability": "view",
      "type": "function"
    },
    {
      "inputs": [
        {
          "internalType": "address",
          "name": "",
          "type": "address"
        },
        {
          "internalType": "address",
          "name": "from",
          "type": "address"
        },
        {
          "internalType": "uint256",
          "name": "",
          "type": "uint256"
        },
        {
          "internalType": "bytes",
          "name": "",
          "type": "bytes"
        }
      ],
      "name": "onERC721Received",
      "outputs": [
        {
          "internalType": "bytes4",
          "name": "",
          "type": "bytes4"
        }
      ],
      "stateMutability": "pure",
      "type": "function"
    },
    {
      "inputs": [
        {
          "internalType": "address",
          "name": "_beanzContract",
          "type": "address"
        },
        {
          "internalType": "address",
          "name": "_nutToken",
          "type": "address"
        }
      ],
      "name": "setInterface",
      "outputs": [],
      "stateMutability": "nonpayable",
      "type": "function"
    },
    {
      "inputs": [
        {
          "internalType": "address",
          "name": "",
          "type": "address"
        }
      ],
      "name": "stakedArrayLength",
      "outputs": [
        {
          "internalType": "uint256",
          "name": "",
          "type": "uint256"
        }
      ],
      "stateMutability": "view",
      "type": "function"
    },
    {
      "inputs": [
        {
          "internalType": "uint256",
          "name": "",
          "type": "uint256"
        }
      ],
      "name": "stakedBeanz",
      "outputs": [
        {
          "internalType": "uint256",
          "name": "stakeTimeStamp",
          "type": "uint256"
        },
        {
          "internalType": "address",
          "name": "beanzOwner",
          "type": "address"
        }
      ],
      "stateMutability": "view",
      "type": "function"
    }
  ],
  "bytecode": "0x6080604052600a6004556201518060055534801561001c57600080fd5b50611b5c8061002c6000396000f3fe608060405234801561001057600080fd5b50600436106100b35760003560e01c8063734cb12611610071578063734cb126146101b357806383ebdee9146101d157806394ef6934146101ed578063dbb344a114610209578063e005e49314610227578063f2ebd1d314610243576100b3565b80621cf2a0146100b857806302d8f2b5146100e9578063150b7a0214610105578063243643f5146101355780634928cf8c14610165578063558a245d14610195575b600080fd5b6100d260048036038101906100cd91906114c4565b610261565b6040516100e0929190611758565b60405180910390f35b61010360048036038101906100fe91906113cc565b6102a5565b005b61011f600480360381019061011a9190611408565b61042e565b60405161012c9190611676565b60405180910390f35b61014f600480360381019061014a919061137a565b610443565b60405161015c919061173d565b60405180910390f35b61017f600480360381019061017a9190611488565b61045b565b60405161018c919061173d565b60405180910390f35b61019d61048c565b6040516101aa91906116c7565b60405180910390f35b6101bb6104b0565b6040516101c891906116e2565b60405180910390f35b6101eb60048036038101906101e691906114c4565b6104d6565b005b61020760048036038101906102029190611488565b610892565b005b610211610b42565b60405161021e9190611691565b60405180910390f35b610241600480360381019061023c9190611488565b610b68565b005b61024b610eda565b60405161025891906116ac565b60405180910390f35b60086020528060005260406000206000915090508060000154908060010160009054906101000a900473ffffffffffffffffffffffffffffffffffffffff16905082565b816000806101000a81548173ffffffffffffffffffffffffffffffffffffffff021916908373ffffffffffffffffffffffffffffffffffffffff16021790555080600160006101000a81548173ffffffffffffffffffffffffffffffffffffffff021916908373ffffffffffffffffffffffffffffffffffffffff16021790555080600260006101000a81548173ffffffffffffffffffffffffffffffffffffffff021916908373ffffffffffffffffffffffffffffffffffffffff16021790555081600360006101000a81548173ffffffffffffffffffffffffffffffffffffffff021916908373ffffffffffffffffffffffffffffffffffffffff16021790555081600660006101000a81548173ffffffffffffffffffffffffffffffffffffffff021916908373ffffffffffffffffffffffffffffffffffffffff16021790555080600760006101000a81548173ffffffffffffffffffffffffffffffffffffffff021916908373ffffffffffffffffffffffffffffffffffffffff1602179055505050565b600063150b7a0260e01b905095945050505050565b600a6020528060005260406000206000915090505481565b6009602052816000526040600020818154811061047757600080fd5b90600052602060002001600091509150505481565b60008054906101000a900473ffffffffffffffffffffffffffffffffffffffff1681565b600260009054906101000a900473ffffffffffffffffffffffffffffffffffffffff1681565b3373ffffffffffffffffffffffffffffffffffffffff1660008054906101000a900473ffffffffffffffffffffffffffffffffffffffff1673ffffffffffffffffffffffffffffffffffffffff16636352211e836040518263ffffffff1660e01b8152600401610546919061173d565b60206040518083038186803b15801561055e57600080fd5b505afa158015610572573d6000803e3d6000fd5b505050506040513d601f19601f8201168201806040525081019061059691906113a3565b73ffffffffffffffffffffffffffffffffffffffff16146105ec576040517f08c379a00000000000000000000000000000000000000000000000000000000081526004016105e39061171d565b60405180910390fd5b60008054906101000a900473ffffffffffffffffffffffffffffffffffffffff1673ffffffffffffffffffffffffffffffffffffffff1663b88d4fde3330846040518463ffffffff1660e01b815260040161064993929190611603565b600060405180830381600087803b15801561066357600080fd5b505af1158015610677573d6000803e3d6000fd5b50505050600360009054906101000a900473ffffffffffffffffffffffffffffffffffffffff1673ffffffffffffffffffffffffffffffffffffffff16633f532271826040518263ffffffff1660e01b81526004016106d6919061173d565b600060405180830381600087803b1580156106f057600080fd5b505af1158015610704573d6000803e3d6000fd5b5050505060405180604001604052804281526020013373ffffffffffffffffffffffffffffffffffffffff16815250600860008381526020019081526020016000206000820151816000015560208201518160010160006101000a81548173ffffffffffffffffffffffffffffffffffffffff021916908373ffffffffffffffffffffffffffffffffffffffff160217905550905050600960003373ffffffffffffffffffffffffffffffffffffffff1673ffffffffffffffffffffffffffffffffffffffff1681526020019081526020016000208190806001815401808255809150506001900390600052602060002001600090919091909150556001600a60003373ffffffffffffffffffffffffffffffffffffffff1673ffffffffffffffffffffffffffffffffffffffff1681526020019081526020016000205461084c91906117a3565b600a60003373ffffffffffffffffffffffffffffffffffffffff1673ffffffffffffffffffffffffffffffffffffffff1681526020019081526020016000208190555050565b600061089d82610f00565b9050600860008381526020019081526020016000206000808201600090556001820160006101000a81549073ffffffffffffffffffffffffffffffffffffffff021916905550506108ee828461100e565b600360009054906101000a900473ffffffffffffffffffffffffffffffffffffffff1673ffffffffffffffffffffffffffffffffffffffff16633e901f0683856040518363ffffffff1660e01b815260040161094b929190611758565b600060405180830381600087803b15801561096557600080fd5b505af1158015610979573d6000803e3d6000fd5b505050506001600a60003373ffffffffffffffffffffffffffffffffffffffff1673ffffffffffffffffffffffffffffffffffffffff168152602001908152602001600020546109c99190611884565b600a60003373ffffffffffffffffffffffffffffffffffffffff1673ffffffffffffffffffffffffffffffffffffffff1681526020019081526020016000208190555060008054906101000a900473ffffffffffffffffffffffffffffffffffffffff1673ffffffffffffffffffffffffffffffffffffffff1663b88d4fde3085856040518463ffffffff1660e01b8152600401610a6993929190611603565b600060405180830381600087803b158015610a8357600080fd5b505af1158015610a97573d6000803e3d6000fd5b50505050600260009054906101000a900473ffffffffffffffffffffffffffffffffffffffff1673ffffffffffffffffffffffffffffffffffffffff166340c10f1984670de0b6b3a764000084610aee919061182a565b6040518363ffffffff1660e01b8152600401610b0b92919061164d565b600060405180830381600087803b158015610b2557600080fd5b505af1158015610b39573d6000803e3d6000fd5b50505050505050565b600360009054906101000a900473ffffffffffffffffffffffffffffffffffffffff1681565b8173ffffffffffffffffffffffffffffffffffffffff166008600083815260200190815260200160002060010160009054906101000a900473ffffffffffffffffffffffffffffffffffffffff1673ffffffffffffffffffffffffffffffffffffffff1614610c0c576040517f08c379a0000000000000000000000000000000000000000000000000000000008152600401610c039061171d565b60405180910390fd5b6000600360009054906101000a900473ffffffffffffffffffffffffffffffffffffffff1673ffffffffffffffffffffffffffffffffffffffff16633f4a306e836040518263ffffffff1660e01b8152600401610c69919061173d565b602060405180830381600087803b158015610c8357600080fd5b505af1158015610c97573d6000803e3d6000fd5b505050506040513d601f19601f82011682018060405250810190610cbb91906114ed565b90506000603c82610ccc919061182a565b905080600160009054906101000a900473ffffffffffffffffffffffffffffffffffffffff1673ffffffffffffffffffffffffffffffffffffffff166370a08231866040518263ffffffff1660e01b8152600401610d2a91906115e8565b60206040518083038186803b158015610d4257600080fd5b505afa158015610d56573d6000803e3d6000fd5b505050506040513d601f19601f82011682018060405250810190610d7a91906114ed565b11610dba576040517f08c379a0000000000000000000000000000000000000000000000000000000008152600401610db1906116fd565b60405180910390fd5b600260009054906101000a900473ffffffffffffffffffffffffffffffffffffffff1673ffffffffffffffffffffffffffffffffffffffff16630ce90ec2826040518263ffffffff1660e01b8152600401610e15919061173d565b600060405180830381600087803b158015610e2f57600080fd5b505af1158015610e43573d6000803e3d6000fd5b50505050600360009054906101000a900473ffffffffffffffffffffffffffffffffffffffff1673ffffffffffffffffffffffffffffffffffffffff1663e4023827846040518263ffffffff1660e01b8152600401610ea2919061173d565b600060405180830381600087803b158015610ebc57600080fd5b505af1158015610ed0573d6000803e3d6000fd5b5050505050505050565b600160009054906101000a900473ffffffffffffffffffffffffffffffffffffffff1681565b600080600860008481526020019081526020016000206000015442610f259190611884565b90506000600360009054906101000a900473ffffffffffffffffffffffffffffffffffffffff1673ffffffffffffffffffffffffffffffffffffffff16633f4a306e856040518263ffffffff1660e01b8152600401610f84919061173d565b602060405180830381600087803b158015610f9e57600080fd5b505af1158015610fb2573d6000803e3d6000fd5b505050506040513d601f19601f82011682018060405250810190610fd691906114ed565b90506000620151806004548484610fed919061182a565b610ff7919061182a565b61100191906117f9565b9050809350505050919050565b6000805b600a60008473ffffffffffffffffffffffffffffffffffffffff1673ffffffffffffffffffffffffffffffffffffffff168152602001908152602001600020548110156110f95783600960008573ffffffffffffffffffffffffffffffffffffffff1673ffffffffffffffffffffffffffffffffffffffff16815260200190815260200160002082815481106110d1577f4e487b7100000000000000000000000000000000000000000000000000000000600052603260045260246000fd5b906000526020600020015414156110e6578091505b80806110f1906119b0565b915050611012565b50600960008373ffffffffffffffffffffffffffffffffffffffff1673ffffffffffffffffffffffffffffffffffffffff1681526020019081526020016000206001600a60008573ffffffffffffffffffffffffffffffffffffffff1673ffffffffffffffffffffffffffffffffffffffff168152602001908152602001600020546111859190611884565b815481106111bc577f4e487b7100000000000000000000000000000000000000000000000000000000600052603260045260246000fd5b9060005260206000200154600960008473ffffffffffffffffffffffffffffffffffffffff1673ffffffffffffffffffffffffffffffffffffffff168152602001908152602001600020828154811061123e577f4e487b7100000000000000000000000000000000000000000000000000000000600052603260045260246000fd5b9060005260206000200181905550600960008373ffffffffffffffffffffffffffffffffffffffff1673ffffffffffffffffffffffffffffffffffffffff1681526020019081526020016000208054806112c1577f4e487b7100000000000000000000000000000000000000000000000000000000600052603160045260246000fd5b60019003818190600052602060002001600090559055505050565b6000813590506112eb81611af8565b92915050565b60008151905061130081611af8565b92915050565b60008083601f84011261131857600080fd5b8235905067ffffffffffffffff81111561133157600080fd5b60208301915083600182028301111561134957600080fd5b9250929050565b60008135905061135f81611b0f565b92915050565b60008151905061137481611b0f565b92915050565b60006020828403121561138c57600080fd5b600061139a848285016112dc565b91505092915050565b6000602082840312156113b557600080fd5b60006113c3848285016112f1565b91505092915050565b600080604083850312156113df57600080fd5b60006113ed858286016112dc565b92505060206113fe858286016112dc565b9150509250929050565b60008060008060006080868803121561142057600080fd5b600061142e888289016112dc565b955050602061143f888289016112dc565b945050604061145088828901611350565b935050606086013567ffffffffffffffff81111561146d57600080fd5b61147988828901611306565b92509250509295509295909350565b6000806040838503121561149b57600080fd5b60006114a9858286016112dc565b92505060206114ba85828601611350565b9150509250929050565b6000602082840312156114d657600080fd5b60006114e484828501611350565b91505092915050565b6000602082840312156114ff57600080fd5b600061150d84828501611365565b91505092915050565b61151f816118b8565b82525050565b61152e816118ca565b82525050565b61153d81611920565b82525050565b61154c81611944565b82525050565b61155b81611968565b82525050565b61156a8161198c565b82525050565b600061157d603083611792565b915061158882611a57565b604082019050919050565b60006115a0602383611792565b91506115ab82611aa6565b604082019050919050565b60006115c3600083611781565b91506115ce82611af5565b600082019050919050565b6115e281611916565b82525050565b60006020820190506115fd6000830184611516565b92915050565b60006080820190506116186000830186611516565b6116256020830185611516565b61163260408301846115d9565b8181036060830152611643816115b6565b9050949350505050565b60006040820190506116626000830185611516565b61166f60208301846115d9565b9392505050565b600060208201905061168b6000830184611525565b92915050565b60006020820190506116a66000830184611534565b92915050565b60006020820190506116c16000830184611543565b92915050565b60006020820190506116dc6000830184611552565b92915050565b60006020820190506116f76000830184611561565b92915050565b6000602082019050818103600083015261171681611570565b9050919050565b6000602082019050818103600083015261173681611593565b9050919050565b600060208201905061175260008301846115d9565b92915050565b600060408201905061176d60008301856115d9565b61177a6020830184611516565b9392505050565b600082825260208201905092915050565b600082825260208201905092915050565b60006117ae82611916565b91506117b983611916565b9250827fffffffffffffffffffffffffffffffffffffffffffffffffffffffffffffffff038211156117ee576117ed6119f9565b5b828201905092915050565b600061180482611916565b915061180f83611916565b92508261181f5761181e611a28565b5b828204905092915050565b600061183582611916565b915061184083611916565b9250817fffffffffffffffffffffffffffffffffffffffffffffffffffffffffffffffff0483118215151615611879576118786119f9565b5b828202905092915050565b600061188f82611916565b915061189a83611916565b9250828210156118ad576118ac6119f9565b5b828203905092915050565b60006118c3826118f6565b9050919050565b60007fffffffff0000000000000000000000000000000000000000000000000000000082169050919050565b600073ffffffffffffffffffffffffffffffffffffffff82169050919050565b6000819050919050565b600061192b82611932565b9050919050565b600061193d826118f6565b9050919050565b600061194f82611956565b9050919050565b6000611961826118f6565b9050919050565b60006119738261197a565b9050919050565b6000611985826118f6565b9050919050565b60006119978261199e565b9050919050565b60006119a9826118f6565b9050919050565b60006119bb82611916565b91507fffffffffffffffffffffffffffffffffffffffffffffffffffffffffffffffff8214156119ee576119ed6119f9565b5b600182019050919050565b7f4e487b7100000000000000000000000000000000000000000000000000000000600052601160045260246000fd5b7f4e487b7100000000000000000000000000000000000000000000000000000000600052601260045260246000fd5b7f596f7520646f6e2774206861766520656e6f756768204e555420746f206c657660008201527f656c20757020796f7572206265616e7a00000000000000000000000000000000602082015250565b7f596f7520617265206e6f7420746865206f776e6572206f66207468697320626560008201527f616e7a0000000000000000000000000000000000000000000000000000000000602082015250565b50565b611b01816118b8565b8114611b0c57600080fd5b50565b611b1881611916565b8114611b2357600080fd5b5056fea264697066735822122089acb34bf665ed02ac87e8ec8575ea90a603065df374f9d8a75558d72ebbb4f464736f6c63430008040033",
  "linkReferences": {},
  "deployedLinkReferences": {}
}