{
  "_format": "hh-sol-artifact-1",
  "contractName": "CoolBeanz",
  "sourceName": "contracts/BeanzNft.sol",
  "abi": [
    {
      "inputs": [
        {
          "internalType": "string",
          "name": "baseURI",
          "type": "string"
        }
      ],
      "stateMutability": "nonpayable",
      "type": "constructor"
    },
    {
      "anonymous": false,
      "inputs": [
        {
          "indexed": true,
          "internalType": "address",
          "name": "owner",
          "type": "address"
        },
        {
          "indexed": true,
          "internalType": "address",
          "name": "approved",
          "type": "address"
        },
        {
          "indexed": true,
          "internalType": "uint256",
          "name": "tokenId",
          "type": "uint256"
        }
      ],
      "name": "Approval",
      "type": "event"
    },
    {
      "anonymous": false,
      "inputs": [
        {
          "indexed": true,
          "internalType": "address",
          "name": "owner",
          "type": "address"
        },
        {
          "indexed": true,
          "internalType": "address",
          "name": "operator",
          "type": "address"
        },
        {
          "indexed": false,
          "internalType": "bool",
          "name": "approved",
          "type": "bool"
        }
      ],
      "name": "ApprovalForAll",
      "type": "event"
    },
    {
      "anonymous": false,
      "inputs": [
        {
          "indexed": true,
          "internalType": "address",
          "name": "previousOwner",
          "type": "address"
        },
        {
          "indexed": true,
          "internalType": "address",
          "name": "newOwner",
          "type": "address"
        }
      ],
      "name": "OwnershipTransferred",
      "type": "event"
    },
    {
      "anonymous": false,
      "inputs": [
        {
          "indexed": true,
          "internalType": "address",
          "name": "from",
          "type": "address"
        },
        {
          "indexed": true,
          "internalType": "address",
          "name": "to",
          "type": "address"
        },
        {
          "indexed": true,
          "internalType": "uint256",
          "name": "tokenId",
          "type": "uint256"
        }
      ],
      "name": "Transfer",
      "type": "event"
    },
    {
      "inputs": [
        {
          "internalType": "uint256",
          "name": "_tokenId",
          "type": "uint256"
        },
        {
          "internalType": "address",
          "name": "_to",
          "type": "address"
        }
      ],
      "name": "addBeanzToOwner",
      "outputs": [],
      "stateMutability": "nonpayable",
      "type": "function"
    },
    {
      "inputs": [
        {
          "internalType": "address",
          "name": "to",
          "type": "address"
        },
        {
          "internalType": "uint256",
          "name": "tokenId",
          "type": "uint256"
        }
      ],
      "name": "approve",
      "outputs": [],
      "stateMutability": "nonpayable",
      "type": "function"
    },
    {
      "inputs": [
        {
          "internalType": "address",
          "name": "owner",
          "type": "address"
        }
      ],
      "name": "balanceOf",
      "outputs": [
        {
          "internalType": "uint256",
          "name": "",
          "type": "uint256"
        }
      ],
      "stateMutability": "view",
      "type": "function"
    },
    {
      "inputs": [
        {
          "internalType": "uint256",
          "name": "",
          "type": "uint256"
        }
      ],
      "name": "beanzLevel",
      "outputs": [
        {
          "internalType": "uint256",
          "name": "level",
          "type": "uint256"
        }
      ],
      "stateMutability": "view",
      "type": "function"
    },
    {
      "inputs": [
        {
          "internalType": "uint256",
          "name": "_tokenId",
          "type": "uint256"
        }
      ],
      "name": "beanzLevelUp",
      "outputs": [],
      "stateMutability": "nonpayable",
      "type": "function"
    },
    {
      "inputs": [
        {
          "internalType": "uint256",
          "name": "",
          "type": "uint256"
        }
      ],
      "name": "beanzToOwner",
      "outputs": [
        {
          "internalType": "address",
          "name": "",
          "type": "address"
        }
      ],
      "stateMutability": "view",
      "type": "function"
    },
    {
      "inputs": [
        {
          "internalType": "uint256",
          "name": "_quantity",
          "type": "uint256"
        }
      ],
      "name": "createBeanz",
      "outputs": [],
      "stateMutability": "payable",
      "type": "function"
    },
    {
      "inputs": [],
      "name": "currentWhitelisted",
      "outputs": [
        {
          "internalType": "uint256",
          "name": "",
          "type": "uint256"
        }
      ],
      "stateMutability": "view",
      "type": "function"
    },
    {
      "inputs": [
        {
          "internalType": "uint256",
          "name": "_tokenId",
          "type": "uint256"
        }
      ],
      "name": "deleteBeanzFromOwner",
      "outputs": [],
      "stateMutability": "nonpayable",
      "type": "function"
    },
    {
      "inputs": [
        {
          "internalType": "uint256",
          "name": "tokenId",
          "type": "uint256"
        }
      ],
      "name": "getApproved",
      "outputs": [
        {
          "internalType": "address",
          "name": "",
          "type": "address"
        }
      ],
      "stateMutability": "view",
      "type": "function"
    },
    {
      "inputs": [
        {
          "internalType": "uint256",
          "name": "_tokenId",
          "type": "uint256"
        }
      ],
      "name": "getBeanzLevel",
      "outputs": [
        {
          "internalType": "uint256",
          "name": "",
          "type": "uint256"
        }
      ],
      "stateMutability": "nonpayable",
      "type": "function"
    },
    {
      "inputs": [
        {
          "internalType": "address",
          "name": "_to",
          "type": "address"
        }
      ],
      "name": "getBeanzOwner",
      "outputs": [
        {
          "internalType": "uint256[]",
          "name": "",
          "type": "uint256[]"
        }
      ],
      "stateMutability": "view",
      "type": "function"
    },
    {
      "inputs": [],
      "name": "getPrice",
      "outputs": [
        {
          "internalType": "uint256",
          "name": "",
          "type": "uint256"
        }
      ],
      "stateMutability": "view",
      "type": "function"
    },
    {
      "inputs": [
        {
          "internalType": "address",
          "name": "owner",
          "type": "address"
        },
        {
          "internalType": "address",
          "name": "operator",
          "type": "address"
        }
      ],
      "name": "isApprovedForAll",
      "outputs": [
        {
          "internalType": "bool",
          "name": "",
          "type": "bool"
        }
      ],
      "stateMutability": "view",
      "type": "function"
    },
    {
      "inputs": [],
      "name": "minimalPrice",
      "outputs": [
        {
          "internalType": "uint256",
          "name": "",
          "type": "uint256"
        }
      ],
      "stateMutability": "view",
      "type": "function"
    },
    {
      "inputs": [],
      "name": "name",
      "outputs": [
        {
          "internalType": "string",
          "name": "",
          "type": "string"
        }
      ],
      "stateMutability": "view",
      "type": "function"
    },
    {
      "inputs": [],
      "name": "owner",
      "outputs": [
        {
          "internalType": "address",
          "name": "",
          "type": "address"
        }
      ],
      "stateMutability": "view",
      "type": "function"
    },
    {
      "inputs": [
        {
          "internalType": "uint256",
          "name": "tokenId",
          "type": "uint256"
        }
      ],
      "name": "ownerOf",
      "outputs": [
        {
          "internalType": "address",
          "name": "",
          "type": "address"
        }
      ],
      "stateMutability": "view",
      "type": "function"
    },
    {
      "inputs": [],
      "name": "price",
      "outputs": [
        {
          "internalType": "uint256",
          "name": "",
          "type": "uint256"
        }
      ],
      "stateMutability": "view",
      "type": "function"
    },
    {
      "inputs": [],
      "name": "pricedroprate",
      "outputs": [
        {
          "internalType": "uint256",
          "name": "",
          "type": "uint256"
        }
      ],
      "stateMutability": "view",
      "type": "function"
    },
    {
      "inputs": [],
      "name": "renounceOwnership",
      "outputs": [],
      "stateMutability": "nonpayable",
      "type": "function"
    },
    {
      "inputs": [
        {
          "internalType": "address",
          "name": "from",
          "type": "address"
        },
        {
          "internalType": "address",
          "name": "to",
          "type": "address"
        },
        {
          "internalType": "uint256",
          "name": "tokenId",
          "type": "uint256"
        }
      ],
      "name": "safeTransferFrom",
      "outputs": [],
      "stateMutability": "nonpayable",
      "type": "function"
    },
    {
      "inputs": [
        {
          "internalType": "address",
          "name": "from",
          "type": "address"
        },
        {
          "internalType": "address",
          "name": "to",
          "type": "address"
        },
        {
          "internalType": "uint256",
          "name": "tokenId",
          "type": "uint256"
        },
        {
          "internalType": "bytes",
          "name": "_data",
          "type": "bytes"
        }
      ],
      "name": "safeTransferFrom",
      "outputs": [],
      "stateMutability": "nonpayable",
      "type": "function"
    },
    {
      "inputs": [
        {
          "internalType": "address",
          "name": "operator",
          "type": "address"
        },
        {
          "internalType": "bool",
          "name": "approved",
          "type": "bool"
        }
      ],
      "name": "setApprovalForAll",
      "outputs": [],
      "stateMutability": "nonpayable",
      "type": "function"
    },
    {
      "inputs": [
        {
          "internalType": "string",
          "name": "baseURI",
          "type": "string"
        }
      ],
      "name": "setBaseURI",
      "outputs": [],
      "stateMutability": "nonpayable",
      "type": "function"
    },
    {
      "inputs": [
        {
          "internalType": "address[]",
          "name": "_address",
          "type": "address[]"
        }
      ],
      "name": "setWhitelist",
      "outputs": [],
      "stateMutability": "nonpayable",
      "type": "function"
    },
    {
      "inputs": [
        {
          "internalType": "uint256",
          "name": "_duration",
          "type": "uint256"
        }
      ],
      "name": "startAuction",
      "outputs": [],
      "stateMutability": "nonpayable",
      "type": "function"
    },
    {
      "inputs": [],
      "name": "startingPrice",
      "outputs": [
        {
          "internalType": "uint256",
          "name": "",
          "type": "uint256"
        }
      ],
      "stateMutability": "view",
      "type": "function"
    },
    {
      "inputs": [
        {
          "internalType": "bytes4",
          "name": "interfaceId",
          "type": "bytes4"
        }
      ],
      "name": "supportsInterface",
      "outputs": [
        {
          "internalType": "bool",
          "name": "",
          "type": "bool"
        }
      ],
      "stateMutability": "view",
      "type": "function"
    },
    {
      "inputs": [],
      "name": "symbol",
      "outputs": [
        {
          "internalType": "string",
          "name": "",
          "type": "string"
        }
      ],
      "stateMutability": "view",
      "type": "function"
    },
    {
      "inputs": [
        {
          "internalType": "uint256",
          "name": "index",
          "type": "uint256"
        }
      ],
      "name": "tokenByIndex",
      "outputs": [
        {
          "internalType": "uint256",
          "name": "",
          "type": "uint256"
        }
      ],
      "stateMutability": "view",
      "type": "function"
    },
    {
      "inputs": [
        {
          "internalType": "address",
          "name": "owner",
          "type": "address"
        },
        {
          "internalType": "uint256",
          "name": "index",
          "type": "uint256"
        }
      ],
      "name": "tokenOfOwnerByIndex",
      "outputs": [
        {
          "internalType": "uint256",
          "name": "",
          "type": "uint256"
        }
      ],
      "stateMutability": "view",
      "type": "function"
    },
    {
      "inputs": [
        {
          "internalType": "uint256",
          "name": "tokenId",
          "type": "uint256"
        }
      ],
      "name": "tokenURI",
      "outputs": [
        {
          "internalType": "string",
          "name": "",
          "type": "string"
        }
      ],
      "stateMutability": "view",
      "type": "function"
    },
    {
      "inputs": [],
      "name": "totalSupply",
      "outputs": [
        {
          "internalType": "uint256",
          "name": "",
          "type": "uint256"
        }
      ],
      "stateMutability": "view",
      "type": "function"
    },
    {
      "inputs": [
        {
          "internalType": "address",
          "name": "from",
          "type": "address"
        },
        {
          "internalType": "address",
          "name": "to",
          "type": "address"
        },
        {
          "internalType": "uint256",
          "name": "tokenId",
          "type": "uint256"
        }
      ],
      "name": "transferFrom",
      "outputs": [],
      "stateMutability": "nonpayable",
      "type": "function"
    },
    {
      "inputs": [
        {
          "internalType": "address",
          "name": "newOwner",
          "type": "address"
        }
      ],
      "name": "transferOwnership",
      "outputs": [],
      "stateMutability": "nonpayable",
      "type": "function"
    },
    {
      "inputs": [
        {
          "internalType": "address",
          "name": "",
          "type": "address"
        }
      ],
      "name": "whitelisted",
      "outputs": [
        {
          "internalType": "bool",
          "name": "",
          "type": "bool"
        }
      ],
      "stateMutability": "view",
      "type": "function"
    },
    {
      "stateMutability": "payable",
      "type": "receive"
    }
  ],
  "bytecode": "0x608060405266470de4df820000600c5566b1a2bc2ec50000600f55662386f26fc10000601055662386f26fc100006011553480156200003d57600080fd5b5060405162004e5638038062004e56833981810160405281019062000063919062000400565b6040518060400160405280600a81526020017f436f6f6c204265616e7a000000000000000000000000000000000000000000008152506040518060400160405280600381526020017f43425a00000000000000000000000000000000000000000000000000000000008152508160009080519060200190620000e7929190620002de565b50806001908051906020019062000100929190620002de565b50505062000123620001176200013b60201b60201c565b6200014360201b60201c565b62000134816200020960201b60201c565b5062000638565b600033905090565b6000600a60009054906101000a900473ffffffffffffffffffffffffffffffffffffffff16905081600a60006101000a81548173ffffffffffffffffffffffffffffffffffffffff021916908373ffffffffffffffffffffffffffffffffffffffff1602179055508173ffffffffffffffffffffffffffffffffffffffff168173ffffffffffffffffffffffffffffffffffffffff167f8be0079c531659141344cd1fd0a4f28419497f9722a3daafe3b4186f6b6457e060405160405180910390a35050565b620002196200013b60201b60201c565b73ffffffffffffffffffffffffffffffffffffffff166200023f620002b460201b60201c565b73ffffffffffffffffffffffffffffffffffffffff161462000298576040517f08c379a00000000000000000000000000000000000000000000000000000000081526004016200028f906200046c565b60405180910390fd5b80600b9080519060200190620002b0929190620002de565b5050565b6000600a60009054906101000a900473ffffffffffffffffffffffffffffffffffffffff16905090565b828054620002ec9062000534565b90600052602060002090601f0160209004810192826200031057600085556200035c565b82601f106200032b57805160ff19168380011785556200035c565b828001600101855582156200035c579182015b828111156200035b5782518255916020019190600101906200033e565b5b5090506200036b91906200036f565b5090565b5b808211156200038a57600081600090555060010162000370565b5090565b6000620003a56200039f84620004b7565b6200048e565b905082815260208101848484011115620003be57600080fd5b620003cb848285620004fe565b509392505050565b600082601f830112620003e557600080fd5b8151620003f78482602086016200038e565b91505092915050565b6000602082840312156200041357600080fd5b600082015167ffffffffffffffff8111156200042e57600080fd5b6200043c84828501620003d3565b91505092915050565b600062000454602083620004ed565b915062000461826200060f565b602082019050919050565b60006020820190508181036000830152620004878162000445565b9050919050565b60006200049a620004ad565b9050620004a882826200056a565b919050565b6000604051905090565b600067ffffffffffffffff821115620004d557620004d4620005cf565b5b620004e082620005fe565b9050602081019050919050565b600082825260208201905092915050565b60005b838110156200051e57808201518184015260208101905062000501565b838111156200052e576000848401525b50505050565b600060028204905060018216806200054d57607f821691505b60208210811415620005645762000563620005a0565b5b50919050565b6200057582620005fe565b810181811067ffffffffffffffff82111715620005975762000596620005cf565b5b80604052505050565b7f4e487b7100000000000000000000000000000000000000000000000000000000600052602260045260246000fd5b7f4e487b7100000000000000000000000000000000000000000000000000000000600052604160045260246000fd5b6000601f19601f8301169050919050565b7f4f776e61626c653a2063616c6c6572206973206e6f7420746865206f776e6572600082015250565b61480e80620006486000396000f3fe60806040526004361061021e5760003560e01c80636352211e11610123578063a24b9350116100ab578063da6871501161006f578063da6871501461082d578063e402382714610858578063e985e9c514610881578063f2fde38b146108be578063f4217648146108e757610225565b8063a24b935014610722578063b88d4fde1461075f578063c87b56dd14610788578063d6fbf202146107c5578063d936547e146107f057610225565b80638da5cb5b116100f25780638da5cb5b1461064d57806395d89b411461067857806398d5fdca146106a3578063a035b1fe146106ce578063a22cb465146106f957610225565b80636352211e146105915780636a4c26b5146105ce57806370a08231146105f9578063715018a61461063657610225565b80632f745c59116101a657806342842e0e1161017557806342842e0e1461048857806342f9d015146104b15780634f6ccce7146104ee57806355f804b31461052b57806357149a141461055457610225565b80632f745c59146103bc5780633e901f06146103f95780633f4a306e146104225780633f5322711461045f57610225565b8063095ea7b3116101ed578063095ea7b3146102f857806318160ddd146103215780631c554ab81461034c57806323b872dd1461036857806325ba2d2e1461039157610225565b806301ffc9a71461022a578063065de74c1461026757806306fdde0314610290578063081812fc146102bb57610225565b3661022557005b600080fd5b34801561023657600080fd5b50610251600480360381019061024c9190613372565b610910565b60405161025e9190613991565b60405180910390f35b34801561027357600080fd5b5061028e60048036038101906102899190613405565b61098a565b005b34801561029c57600080fd5b506102a5610a97565b6040516102b291906139ac565b60405180910390f35b3480156102c757600080fd5b506102e260048036038101906102dd9190613405565b610b29565b6040516102ef9190613908565b60405180910390f35b34801561030457600080fd5b5061031f600480360381019061031a91906132f5565b610bae565b005b34801561032d57600080fd5b50610336610cc6565b6040516103439190613cae565b60405180910390f35b61036660048036038101906103619190613405565b610cd3565b005b34801561037457600080fd5b5061038f600480360381019061038a91906131ef565b610ee2565b005b34801561039d57600080fd5b506103a6610f42565b6040516103b39190613cae565b60405180910390f35b3480156103c857600080fd5b506103e360048036038101906103de91906132f5565b610f48565b6040516103f09190613cae565b60405180910390f35b34801561040557600080fd5b50610420600480360381019061041b919061342e565b610fed565b005b34801561042e57600080fd5b5061044960048036038101906104449190613405565b611043565b6040516104569190613cae565b60405180910390f35b34801561046b57600080fd5b5061048660048036038101906104819190613405565b61107d565b005b34801561049457600080fd5b506104af60048036038101906104aa91906131ef565b6110b6565b005b3480156104bd57600080fd5b506104d860048036038101906104d39190613405565b6110d6565b6040516104e59190613cae565b60405180910390f35b3480156104fa57600080fd5b5061051560048036038101906105109190613405565b6110f4565b6040516105229190613cae565b60405180910390f35b34801561053757600080fd5b50610552600480360381019061054d91906133c4565b61118b565b005b34801561056057600080fd5b5061057b6004803603810190610576919061318a565b611221565b604051610588919061396f565b60405180910390f35b34801561059d57600080fd5b506105b860048036038101906105b39190613405565b611386565b6040516105c59190613908565b60405180910390f35b3480156105da57600080fd5b506105e3611438565b6040516105f09190613cae565b60405180910390f35b34801561060557600080fd5b50610620600480360381019061061b919061318a565b61143e565b60405161062d9190613cae565b60405180910390f35b34801561064257600080fd5b5061064b6114f6565b005b34801561065957600080fd5b5061066261157e565b60405161066f9190613908565b60405180910390f35b34801561068457600080fd5b5061068d6115a8565b60405161069a91906139ac565b60405180910390f35b3480156106af57600080fd5b506106b861163a565b6040516106c59190613cae565b60405180910390f35b3480156106da57600080fd5b506106e3611744565b6040516106f09190613cae565b60405180910390f35b34801561070557600080fd5b50610720600480360381019061071b91906132b9565b61174a565b005b34801561072e57600080fd5b5061074960048036038101906107449190613405565b611760565b6040516107569190613908565b60405180910390f35b34801561076b57600080fd5b506107866004803603810190610781919061323e565b611793565b005b34801561079457600080fd5b506107af60048036038101906107aa9190613405565b6117f5565b6040516107bc91906139ac565b60405180910390f35b3480156107d157600080fd5b506107da61189c565b6040516107e79190613cae565b60405180910390f35b3480156107fc57600080fd5b506108176004803603810190610812919061318a565b6118a2565b6040516108249190613991565b60405180910390f35b34801561083957600080fd5b506108426118c2565b60405161084f9190613cae565b60405180910390f35b34801561086457600080fd5b5061087f600480360381019061087a9190613405565b6118c8565b005b34801561088d57600080fd5b506108a860048036038101906108a391906131b3565b61190e565b6040516108b59190613991565b60405180910390f35b3480156108ca57600080fd5b506108e560048036038101906108e0919061318a565b6119a2565b005b3480156108f357600080fd5b5061090e60048036038101906109099190613331565b611a9a565b005b60007f780e9d63000000000000000000000000000000000000000000000000000000007bffffffffffffffffffffffffffffffffffffffffffffffffffffffff1916827bffffffffffffffffffffffffffffffffffffffffffffffffffffffff19161480610983575061098282611be9565b5b9050919050565b610992611ccb565b73ffffffffffffffffffffffffffffffffffffffff166109b061157e565b73ffffffffffffffffffffffffffffffffffffffff1614610a06576040517f08c379a00000000000000000000000000000000000000000000000000000000081526004016109fd90613bee565b60405180910390fd5b600681111580610a165750600081115b610a55576040517f08c379a0000000000000000000000000000000000000000000000000000000008152600401610a4c90613c0e565b60405180910390fd5b6001601260000160006101000a81548160ff021916908315150217905550610e1081610a819190613e7f565b6012600101819055504260126002018190555050565b606060008054610aa690613fc3565b80601f0160208091040260200160405190810160405280929190818152602001828054610ad290613fc3565b8015610b1f5780601f10610af457610100808354040283529160200191610b1f565b820191906000526020600020905b815481529060010190602001808311610b0257829003601f168201915b5050505050905090565b6000610b3482611cd3565b610b73576040517f08c379a0000000000000000000000000000000000000000000000000000000008152600401610b6a90613bce565b60405180910390fd5b6004600083815260200190815260200160002060009054906101000a900473ffffffffffffffffffffffffffffffffffffffff169050919050565b6000610bb982611386565b90508073ffffffffffffffffffffffffffffffffffffffff168373ffffffffffffffffffffffffffffffffffffffff161415610c2a576040517f08c379a0000000000000000000000000000000000000000000000000000000008152600401610c2190613c4e565b60405180910390fd5b8073ffffffffffffffffffffffffffffffffffffffff16610c49611ccb565b73ffffffffffffffffffffffffffffffffffffffff161480610c785750610c7781610c72611ccb565b61190e565b5b610cb7576040517f08c379a0000000000000000000000000000000000000000000000000000000008152600401610cae90613aee565b60405180910390fd5b610cc18383611d3f565b505050565b6000600880549050905090565b60011515601260000160009054906101000a900460ff16151514610d2c576040517f08c379a0000000000000000000000000000000000000000000000000000000008152600401610d2390613bae565b60405180910390fd5b6003811115610d70576040517f08c379a0000000000000000000000000000000000000000000000000000000008152600401610d67906139ce565b60405180910390fd5b6115b3600d5482610d819190613df8565b1115610dc2576040517f08c379a0000000000000000000000000000000000000000000000000000000008152600401610db990613b0e565b60405180910390fd5b80610dcb61163a565b610dd59190613e7f565b3414610e16576040517f08c379a0000000000000000000000000000000000000000000000000000000008152600401610e0d90613b6e565b60405180910390fd5b60005b81811015610ede57610e2d33600d54611df8565b3360166000600d54815260200190815260200160002060006101000a81548173ffffffffffffffffffffffffffffffffffffffff021916908373ffffffffffffffffffffffffffffffffffffffff1602179055506040518060200160405280600181525060176000600d54815260200190815260200160002060008201518160000155905050600d6000815480929190610ec690614026565b91905055508080610ed690614026565b915050610e19565b5050565b610ef3610eed611ccb565b82611e16565b610f32576040517f08c379a0000000000000000000000000000000000000000000000000000000008152600401610f2990613c6e565b60405180910390fd5b610f3d838383611ef4565b505050565b60115481565b6000610f538361143e565b8210610f94576040517f08c379a0000000000000000000000000000000000000000000000000000000008152600401610f8b906139ee565b60405180910390fd5b600660008473ffffffffffffffffffffffffffffffffffffffff1673ffffffffffffffffffffffffffffffffffffffff168152602001908152602001600020600083815260200190815260200160002054905092915050565b806016600084815260200190815260200160002060006101000a81548173ffffffffffffffffffffffffffffffffffffffff021916908373ffffffffffffffffffffffffffffffffffffffff1602179055505050565b6000806017600084815260200190815260200160002060405180602001604052908160008201548152505090508060000151915050919050565b6016600082815260200190815260200160002060006101000a81549073ffffffffffffffffffffffffffffffffffffffff021916905550565b6110d183838360405180602001604052806000815250611793565b505050565b60176020528060005260406000206000915090508060000154905081565b60006110fe610cc6565b821061113f576040517f08c379a000000000000000000000000000000000000000000000000000000000815260040161113690613c8e565b60405180910390fd5b60088281548110611179577f4e487b7100000000000000000000000000000000000000000000000000000000600052603260045260246000fd5b90600052602060002001549050919050565b611193611ccb565b73ffffffffffffffffffffffffffffffffffffffff166111b161157e565b73ffffffffffffffffffffffffffffffffffffffff1614611207576040517f08c379a00000000000000000000000000000000000000000000000000000000081526004016111fe90613bee565b60405180910390fd5b80600b908051906020019061121d929190612f18565b5050565b6060600061122e8361143e565b67ffffffffffffffff81111561126d577f4e487b7100000000000000000000000000000000000000000000000000000000600052604160045260246000fd5b60405190808252806020026020018201604052801561129b5781602001602082028036833780820191505090505b5090506000805b600d5481101561137b578473ffffffffffffffffffffffffffffffffffffffff166016600083815260200190815260200160002060009054906101000a900473ffffffffffffffffffffffffffffffffffffffff1673ffffffffffffffffffffffffffffffffffffffff161415611368578083838151811061134d577f4e487b7100000000000000000000000000000000000000000000000000000000600052603260045260246000fd5b602002602001018181525050818061136490614026565b9250505b808061137390614026565b9150506112a2565b508192505050919050565b6000806002600084815260200190815260200160002060009054906101000a900473ffffffffffffffffffffffffffffffffffffffff169050600073ffffffffffffffffffffffffffffffffffffffff168173ffffffffffffffffffffffffffffffffffffffff16141561142f576040517f08c379a000000000000000000000000000000000000000000000000000000000815260040161142690613b4e565b60405180910390fd5b80915050919050565b60105481565b60008073ffffffffffffffffffffffffffffffffffffffff168273ffffffffffffffffffffffffffffffffffffffff1614156114af576040517f08c379a00000000000000000000000000000000000000000000000000000000081526004016114a690613b2e565b60405180910390fd5b600360008373ffffffffffffffffffffffffffffffffffffffff1673ffffffffffffffffffffffffffffffffffffffff168152602001908152602001600020549050919050565b6114fe611ccb565b73ffffffffffffffffffffffffffffffffffffffff1661151c61157e565b73ffffffffffffffffffffffffffffffffffffffff1614611572576040517f08c379a000000000000000000000000000000000000000000000000000000000815260040161156990613bee565b60405180910390fd5b61157c600061215b565b565b6000600a60009054906101000a900473ffffffffffffffffffffffffffffffffffffffff16905090565b6060600180546115b790613fc3565b80601f01602080910402602001604051908101604052809291908181526020018280546115e390613fc3565b80156116305780601f1061160557610100808354040283529160200191611630565b820191906000526020600020905b81548152906001019060200180831161161357829003601f168201915b5050505050905090565b600060011515601260000160009054906101000a900460ff16151514611695576040517f08c379a000000000000000000000000000000000000000000000000000000000815260040161168c90613bae565b60405180910390fd5b6000601260020154426116a89190613ed9565b9050600060046012600101546116be9190613e4e565b826116c99190613e4e565b90506000601054826116db9190613e7f565b9050600081600f546116ed9190613ed9565b905060006012600101546012600201546117079190613df8565b90504281111561171e578195505050505050611741565b600f5483106117365760115495505050505050611741565b601154955050505050505b90565b600c5481565b61175c611755611ccb565b8383612221565b5050565b60166020528060005260406000206000915054906101000a900473ffffffffffffffffffffffffffffffffffffffff1681565b6117a461179e611ccb565b83611e16565b6117e3576040517f08c379a00000000000000000000000000000000000000000000000000000000081526004016117da90613c6e565b60405180910390fd5b6117ef8484848461238e565b50505050565b606061180082611cd3565b61183f576040517f08c379a000000000000000000000000000000000000000000000000000000000815260040161183690613c2e565b60405180910390fd5b60006118496123ea565b905060008151116118695760405180602001604052806000815250611894565b806118738461247c565b6040516020016118849291906138e4565b6040516020818303038152906040525b915050919050565b600f5481565b60156020528060005260406000206000915054906101000a900460ff1681565b600e5481565b600060176000838152602001908152602001600020604051806020016040529081600082015481525050905080600001805180919061190690614026565b815250505050565b6000600560008473ffffffffffffffffffffffffffffffffffffffff1673ffffffffffffffffffffffffffffffffffffffff16815260200190815260200160002060008373ffffffffffffffffffffffffffffffffffffffff1673ffffffffffffffffffffffffffffffffffffffff16815260200190815260200160002060009054906101000a900460ff16905092915050565b6119aa611ccb565b73ffffffffffffffffffffffffffffffffffffffff166119c861157e565b73ffffffffffffffffffffffffffffffffffffffff1614611a1e576040517f08c379a0000000000000000000000000000000000000000000000000000000008152600401611a1590613bee565b60405180910390fd5b600073ffffffffffffffffffffffffffffffffffffffff168173ffffffffffffffffffffffffffffffffffffffff161415611a8e576040517f08c379a0000000000000000000000000000000000000000000000000000000008152600401611a8590613a2e565b60405180910390fd5b611a978161215b565b50565b611aa2611ccb565b73ffffffffffffffffffffffffffffffffffffffff16611ac061157e565b73ffffffffffffffffffffffffffffffffffffffff1614611b16576040517f08c379a0000000000000000000000000000000000000000000000000000000008152600401611b0d90613bee565b60405180910390fd5b60005b8151811015611be557600160156000848481518110611b61577f4e487b7100000000000000000000000000000000000000000000000000000000600052603260045260246000fd5b602002602001015173ffffffffffffffffffffffffffffffffffffffff1673ffffffffffffffffffffffffffffffffffffffff16815260200190815260200160002060006101000a81548160ff021916908315150217905550600e6000815480929190611bcd90614026565b91905055508080611bdd90614026565b915050611b19565b5050565b60007f80ac58cd000000000000000000000000000000000000000000000000000000007bffffffffffffffffffffffffffffffffffffffffffffffffffffffff1916827bffffffffffffffffffffffffffffffffffffffffffffffffffffffff19161480611cb457507f5b5e139f000000000000000000000000000000000000000000000000000000007bffffffffffffffffffffffffffffffffffffffffffffffffffffffff1916827bffffffffffffffffffffffffffffffffffffffffffffffffffffffff1916145b80611cc45750611cc382612629565b5b9050919050565b600033905090565b60008073ffffffffffffffffffffffffffffffffffffffff166002600084815260200190815260200160002060009054906101000a900473ffffffffffffffffffffffffffffffffffffffff1673ffffffffffffffffffffffffffffffffffffffff1614159050919050565b816004600083815260200190815260200160002060006101000a81548173ffffffffffffffffffffffffffffffffffffffff021916908373ffffffffffffffffffffffffffffffffffffffff160217905550808273ffffffffffffffffffffffffffffffffffffffff16611db283611386565b73ffffffffffffffffffffffffffffffffffffffff167f8c5be1e5ebec7d5bd14f71427d1e84f3dd0314c0f7b2291e5b200ac8c7c3b92560405160405180910390a45050565b611e12828260405180602001604052806000815250612693565b5050565b6000611e2182611cd3565b611e60576040517f08c379a0000000000000000000000000000000000000000000000000000000008152600401611e5790613ace565b60405180910390fd5b6000611e6b83611386565b90508073ffffffffffffffffffffffffffffffffffffffff168473ffffffffffffffffffffffffffffffffffffffff161480611ead5750611eac818561190e565b5b80611eeb57508373ffffffffffffffffffffffffffffffffffffffff16611ed384610b29565b73ffffffffffffffffffffffffffffffffffffffff16145b91505092915050565b8273ffffffffffffffffffffffffffffffffffffffff16611f1482611386565b73ffffffffffffffffffffffffffffffffffffffff1614611f6a576040517f08c379a0000000000000000000000000000000000000000000000000000000008152600401611f6190613a4e565b60405180910390fd5b600073ffffffffffffffffffffffffffffffffffffffff168273ffffffffffffffffffffffffffffffffffffffff161415611fda576040517f08c379a0000000000000000000000000000000000000000000000000000000008152600401611fd190613a8e565b60405180910390fd5b611fe58383836126ee565b611ff0600082611d3f565b6001600360008573ffffffffffffffffffffffffffffffffffffffff1673ffffffffffffffffffffffffffffffffffffffff16815260200190815260200160002060008282546120409190613ed9565b925050819055506001600360008473ffffffffffffffffffffffffffffffffffffffff1673ffffffffffffffffffffffffffffffffffffffff16815260200190815260200160002060008282546120979190613df8565b92505081905550816002600083815260200190815260200160002060006101000a81548173ffffffffffffffffffffffffffffffffffffffff021916908373ffffffffffffffffffffffffffffffffffffffff160217905550808273ffffffffffffffffffffffffffffffffffffffff168473ffffffffffffffffffffffffffffffffffffffff167fddf252ad1be2c89b69c2b068fc378daa952ba7f163c4a11628f55a4df523b3ef60405160405180910390a4612156838383612802565b505050565b6000600a60009054906101000a900473ffffffffffffffffffffffffffffffffffffffff16905081600a60006101000a81548173ffffffffffffffffffffffffffffffffffffffff021916908373ffffffffffffffffffffffffffffffffffffffff1602179055508173ffffffffffffffffffffffffffffffffffffffff168173ffffffffffffffffffffffffffffffffffffffff167f8be0079c531659141344cd1fd0a4f28419497f9722a3daafe3b4186f6b6457e060405160405180910390a35050565b8173ffffffffffffffffffffffffffffffffffffffff168373ffffffffffffffffffffffffffffffffffffffff161415612290576040517f08c379a000000000000000000000000000000000000000000000000000000000815260040161228790613aae565b60405180910390fd5b80600560008573ffffffffffffffffffffffffffffffffffffffff1673ffffffffffffffffffffffffffffffffffffffff16815260200190815260200160002060008473ffffffffffffffffffffffffffffffffffffffff1673ffffffffffffffffffffffffffffffffffffffff16815260200190815260200160002060006101000a81548160ff0219169083151502179055508173ffffffffffffffffffffffffffffffffffffffff168373ffffffffffffffffffffffffffffffffffffffff167f17307eab39ab6107e8899845ad3d59bd9653f200f220920489ca2b5937696c31836040516123819190613991565b60405180910390a3505050565b612399848484611ef4565b6123a584848484612807565b6123e4576040517f08c379a00000000000000000000000000000000000000000000000000000000081526004016123db90613a0e565b60405180910390fd5b50505050565b6060600b80546123f990613fc3565b80601f016020809104026020016040519081016040528092919081815260200182805461242590613fc3565b80156124725780601f1061244757610100808354040283529160200191612472565b820191906000526020600020905b81548152906001019060200180831161245557829003601f168201915b5050505050905090565b606060008214156124c4576040518060400160405280600181526020017f30000000000000000000000000000000000000000000000000000000000000008152509050612624565b600082905060005b600082146124f65780806124df90614026565b915050600a826124ef9190613e4e565b91506124cc565b60008167ffffffffffffffff811115612538577f4e487b7100000000000000000000000000000000000000000000000000000000600052604160045260246000fd5b6040519080825280601f01601f19166020018201604052801561256a5781602001600182028036833780820191505090505b5090505b6000851461261d576001826125839190613ed9565b9150600a85612592919061406f565b603061259e9190613df8565b60f81b8183815181106125da577f4e487b7100000000000000000000000000000000000000000000000000000000600052603260045260246000fd5b60200101907effffffffffffffffffffffffffffffffffffffffffffffffffffffffffffff1916908160001a905350600a856126169190613e4e565b945061256e565b8093505050505b919050565b60007f01ffc9a7000000000000000000000000000000000000000000000000000000007bffffffffffffffffffffffffffffffffffffffffffffffffffffffff1916827bffffffffffffffffffffffffffffffffffffffffffffffffffffffff1916149050919050565b61269d838361299e565b6126aa6000848484612807565b6126e9576040517f08c379a00000000000000000000000000000000000000000000000000000000081526004016126e090613a0e565b60405180910390fd5b505050565b6126f9838383612b78565b600073ffffffffffffffffffffffffffffffffffffffff168373ffffffffffffffffffffffffffffffffffffffff16141561273c5761273781612b7d565b61277b565b8173ffffffffffffffffffffffffffffffffffffffff168373ffffffffffffffffffffffffffffffffffffffff161461277a576127798382612bc6565b5b5b600073ffffffffffffffffffffffffffffffffffffffff168273ffffffffffffffffffffffffffffffffffffffff1614156127be576127b981612d33565b6127fd565b8273ffffffffffffffffffffffffffffffffffffffff168273ffffffffffffffffffffffffffffffffffffffff16146127fc576127fb8282612e76565b5b5b505050565b505050565b60006128288473ffffffffffffffffffffffffffffffffffffffff16612ef5565b15612991578373ffffffffffffffffffffffffffffffffffffffff1663150b7a02612851611ccb565b8786866040518563ffffffff1660e01b81526004016128739493929190613923565b602060405180830381600087803b15801561288d57600080fd5b505af19250505080156128be57506040513d601f19601f820116820180604052508101906128bb919061339b565b60015b612941573d80600081146128ee576040519150601f19603f3d011682016040523d82523d6000602084013e6128f3565b606091505b50600081511415612939576040517f08c379a000000000000000000000000000000000000000000000000000000000815260040161293090613a0e565b60405180910390fd5b805181602001fd5b63150b7a0260e01b7bffffffffffffffffffffffffffffffffffffffffffffffffffffffff1916817bffffffffffffffffffffffffffffffffffffffffffffffffffffffff191614915050612996565b600190505b949350505050565b600073ffffffffffffffffffffffffffffffffffffffff168273ffffffffffffffffffffffffffffffffffffffff161415612a0e576040517f08c379a0000000000000000000000000000000000000000000000000000000008152600401612a0590613b8e565b60405180910390fd5b612a1781611cd3565b15612a57576040517f08c379a0000000000000000000000000000000000000000000000000000000008152600401612a4e90613a6e565b60405180910390fd5b612a63600083836126ee565b6001600360008473ffffffffffffffffffffffffffffffffffffffff1673ffffffffffffffffffffffffffffffffffffffff1681526020019081526020016000206000828254612ab39190613df8565b92505081905550816002600083815260200190815260200160002060006101000a81548173ffffffffffffffffffffffffffffffffffffffff021916908373ffffffffffffffffffffffffffffffffffffffff160217905550808273ffffffffffffffffffffffffffffffffffffffff16600073ffffffffffffffffffffffffffffffffffffffff167fddf252ad1be2c89b69c2b068fc378daa952ba7f163c4a11628f55a4df523b3ef60405160405180910390a4612b7460008383612802565b5050565b505050565b6008805490506009600083815260200190815260200160002081905550600881908060018154018082558091505060019003906000526020600020016000909190919091505550565b60006001612bd38461143e565b612bdd9190613ed9565b9050600060076000848152602001908152602001600020549050818114612cc2576000600660008673ffffffffffffffffffffffffffffffffffffffff1673ffffffffffffffffffffffffffffffffffffffff168152602001908152602001600020600084815260200190815260200160002054905080600660008773ffffffffffffffffffffffffffffffffffffffff1673ffffffffffffffffffffffffffffffffffffffff168152602001908152602001600020600084815260200190815260200160002081905550816007600083815260200190815260200160002081905550505b6007600084815260200190815260200160002060009055600660008573ffffffffffffffffffffffffffffffffffffffff1673ffffffffffffffffffffffffffffffffffffffff16815260200190815260200160002060008381526020019081526020016000206000905550505050565b60006001600880549050612d479190613ed9565b9050600060096000848152602001908152602001600020549050600060088381548110612d9d577f4e487b7100000000000000000000000000000000000000000000000000000000600052603260045260246000fd5b906000526020600020015490508060088381548110612de5577f4e487b7100000000000000000000000000000000000000000000000000000000600052603260045260246000fd5b906000526020600020018190555081600960008381526020019081526020016000208190555060096000858152602001908152602001600020600090556008805480612e5a577f4e487b7100000000000000000000000000000000000000000000000000000000600052603160045260246000fd5b6001900381819060005260206000200160009055905550505050565b6000612e818361143e565b905081600660008573ffffffffffffffffffffffffffffffffffffffff1673ffffffffffffffffffffffffffffffffffffffff168152602001908152602001600020600083815260200190815260200160002081905550806007600084815260200190815260200160002081905550505050565b6000808273ffffffffffffffffffffffffffffffffffffffff163b119050919050565b828054612f2490613fc3565b90600052602060002090601f016020900481019282612f465760008555612f8d565b82601f10612f5f57805160ff1916838001178555612f8d565b82800160010185558215612f8d579182015b82811115612f8c578251825591602001919060010190612f71565b5b509050612f9a9190612f9e565b5090565b5b80821115612fb7576000816000905550600101612f9f565b5090565b6000612fce612fc984613cee565b613cc9565b90508083825260208201905082856020860282011115612fed57600080fd5b60005b8581101561301d578161300388826130a3565b845260208401935060208301925050600181019050612ff0565b5050509392505050565b600061303a61303584613d1a565b613cc9565b90508281526020810184848401111561305257600080fd5b61305d848285613f81565b509392505050565b600061307861307384613d4b565b613cc9565b90508281526020810184848401111561309057600080fd5b61309b848285613f81565b509392505050565b6000813590506130b28161477c565b92915050565b600082601f8301126130c957600080fd5b81356130d9848260208601612fbb565b91505092915050565b6000813590506130f181614793565b92915050565b600081359050613106816147aa565b92915050565b60008151905061311b816147aa565b92915050565b600082601f83011261313257600080fd5b8135613142848260208601613027565b91505092915050565b600082601f83011261315c57600080fd5b813561316c848260208601613065565b91505092915050565b600081359050613184816147c1565b92915050565b60006020828403121561319c57600080fd5b60006131aa848285016130a3565b91505092915050565b600080604083850312156131c657600080fd5b60006131d4858286016130a3565b92505060206131e5858286016130a3565b9150509250929050565b60008060006060848603121561320457600080fd5b6000613212868287016130a3565b9350506020613223868287016130a3565b925050604061323486828701613175565b9150509250925092565b6000806000806080858703121561325457600080fd5b6000613262878288016130a3565b9450506020613273878288016130a3565b935050604061328487828801613175565b925050606085013567ffffffffffffffff8111156132a157600080fd5b6132ad87828801613121565b91505092959194509250565b600080604083850312156132cc57600080fd5b60006132da858286016130a3565b92505060206132eb858286016130e2565b9150509250929050565b6000806040838503121561330857600080fd5b6000613316858286016130a3565b925050602061332785828601613175565b9150509250929050565b60006020828403121561334357600080fd5b600082013567ffffffffffffffff81111561335d57600080fd5b613369848285016130b8565b91505092915050565b60006020828403121561338457600080fd5b6000613392848285016130f7565b91505092915050565b6000602082840312156133ad57600080fd5b60006133bb8482850161310c565b91505092915050565b6000602082840312156133d657600080fd5b600082013567ffffffffffffffff8111156133f057600080fd5b6133fc8482850161314b565b91505092915050565b60006020828403121561341757600080fd5b600061342584828501613175565b91505092915050565b6000806040838503121561344157600080fd5b600061344f85828601613175565b9250506020613460858286016130a3565b9150509250929050565b600061347683836138c6565b60208301905092915050565b61348b81613f0d565b82525050565b600061349c82613d8c565b6134a68185613dba565b93506134b183613d7c565b8060005b838110156134e25781516134c9888261346a565b97506134d483613dad565b9250506001810190506134b5565b5085935050505092915050565b6134f881613f1f565b82525050565b600061350982613d97565b6135138185613dcb565b9350613523818560208601613f90565b61352c8161415c565b840191505092915050565b600061354282613da2565b61354c8185613ddc565b935061355c818560208601613f90565b6135658161415c565b840191505092915050565b600061357b82613da2565b6135858185613ded565b9350613595818560208601613f90565b80840191505092915050565b60006135ae602483613ddc565b91506135b98261416d565b604082019050919050565b60006135d1602b83613ddc565b91506135dc826141bc565b604082019050919050565b60006135f4603283613ddc565b91506135ff8261420b565b604082019050919050565b6000613617602683613ddc565b91506136228261425a565b604082019050919050565b600061363a602583613ddc565b9150613645826142a9565b604082019050919050565b600061365d601c83613ddc565b9150613668826142f8565b602082019050919050565b6000613680602483613ddc565b915061368b82614321565b604082019050919050565b60006136a3601983613ddc565b91506136ae82614370565b602082019050919050565b60006136c6602c83613ddc565b91506136d182614399565b604082019050919050565b60006136e9603883613ddc565b91506136f4826143e8565b604082019050919050565b600061370c601183613ddc565b915061371782614437565b602082019050919050565b600061372f602a83613ddc565b915061373a82614460565b604082019050919050565b6000613752602983613ddc565b915061375d826144af565b604082019050919050565b6000613775601483613ddc565b9150613780826144fe565b602082019050919050565b6000613798602083613ddc565b91506137a382614527565b602082019050919050565b60006137bb601783613ddc565b91506137c682614550565b602082019050919050565b60006137de602c83613ddc565b91506137e982614579565b604082019050919050565b6000613801602083613ddc565b915061380c826145c8565b602082019050919050565b6000613824602383613ddc565b915061382f826145f1565b604082019050919050565b6000613847602f83613ddc565b915061385282614640565b604082019050919050565b600061386a602183613ddc565b91506138758261468f565b604082019050919050565b600061388d603183613ddc565b9150613898826146de565b604082019050919050565b60006138b0602c83613ddc565b91506138bb8261472d565b604082019050919050565b6138cf81613f77565b82525050565b6138de81613f77565b82525050565b60006138f08285613570565b91506138fc8284613570565b91508190509392505050565b600060208201905061391d6000830184613482565b92915050565b60006080820190506139386000830187613482565b6139456020830186613482565b61395260408301856138d5565b818103606083015261396481846134fe565b905095945050505050565b600060208201905081810360008301526139898184613491565b905092915050565b60006020820190506139a660008301846134ef565b92915050565b600060208201905081810360008301526139c68184613537565b905092915050565b600060208201905081810360008301526139e7816135a1565b9050919050565b60006020820190508181036000830152613a07816135c4565b9050919050565b60006020820190508181036000830152613a27816135e7565b9050919050565b60006020820190508181036000830152613a478161360a565b9050919050565b60006020820190508181036000830152613a678161362d565b9050919050565b60006020820190508181036000830152613a8781613650565b9050919050565b60006020820190508181036000830152613aa781613673565b9050919050565b60006020820190508181036000830152613ac781613696565b9050919050565b60006020820190508181036000830152613ae7816136b9565b9050919050565b60006020820190508181036000830152613b07816136dc565b9050919050565b60006020820190508181036000830152613b27816136ff565b9050919050565b60006020820190508181036000830152613b4781613722565b9050919050565b60006020820190508181036000830152613b6781613745565b9050919050565b60006020820190508181036000830152613b8781613768565b9050919050565b60006020820190508181036000830152613ba78161378b565b9050919050565b60006020820190508181036000830152613bc7816137ae565b9050919050565b60006020820190508181036000830152613be7816137d1565b9050919050565b60006020820190508181036000830152613c07816137f4565b9050919050565b60006020820190508181036000830152613c2781613817565b9050919050565b60006020820190508181036000830152613c478161383a565b9050919050565b60006020820190508181036000830152613c678161385d565b9050919050565b60006020820190508181036000830152613c8781613880565b9050919050565b60006020820190508181036000830152613ca7816138a3565b9050919050565b6000602082019050613cc360008301846138d5565b92915050565b6000613cd3613ce4565b9050613cdf8282613ff5565b919050565b6000604051905090565b600067ffffffffffffffff821115613d0957613d0861412d565b5b602082029050602081019050919050565b600067ffffffffffffffff821115613d3557613d3461412d565b5b613d3e8261415c565b9050602081019050919050565b600067ffffffffffffffff821115613d6657613d6561412d565b5b613d6f8261415c565b9050602081019050919050565b6000819050602082019050919050565b600081519050919050565b600081519050919050565b600081519050919050565b6000602082019050919050565b600082825260208201905092915050565b600082825260208201905092915050565b600082825260208201905092915050565b600081905092915050565b6000613e0382613f77565b9150613e0e83613f77565b9250827fffffffffffffffffffffffffffffffffffffffffffffffffffffffffffffffff03821115613e4357613e426140a0565b5b828201905092915050565b6000613e5982613f77565b9150613e6483613f77565b925082613e7457613e736140cf565b5b828204905092915050565b6000613e8a82613f77565b9150613e9583613f77565b9250817fffffffffffffffffffffffffffffffffffffffffffffffffffffffffffffffff0483118215151615613ece57613ecd6140a0565b5b828202905092915050565b6000613ee482613f77565b9150613eef83613f77565b925082821015613f0257613f016140a0565b5b828203905092915050565b6000613f1882613f57565b9050919050565b60008115159050919050565b60007fffffffff0000000000000000000000000000000000000000000000000000000082169050919050565b600073ffffffffffffffffffffffffffffffffffffffff82169050919050565b6000819050919050565b82818337600083830152505050565b60005b83811015613fae578082015181840152602081019050613f93565b83811115613fbd576000848401525b50505050565b60006002820490506001821680613fdb57607f821691505b60208210811415613fef57613fee6140fe565b5b50919050565b613ffe8261415c565b810181811067ffffffffffffffff8211171561401d5761401c61412d565b5b80604052505050565b600061403182613f77565b91507fffffffffffffffffffffffffffffffffffffffffffffffffffffffffffffffff821415614064576140636140a0565b5b600182019050919050565b600061407a82613f77565b915061408583613f77565b925082614095576140946140cf565b5b828206905092915050565b7f4e487b7100000000000000000000000000000000000000000000000000000000600052601160045260246000fd5b7f4e487b7100000000000000000000000000000000000000000000000000000000600052601260045260246000fd5b7f4e487b7100000000000000000000000000000000000000000000000000000000600052602260045260246000fd5b7f4e487b7100000000000000000000000000000000000000000000000000000000600052604160045260246000fd5b6000601f19601f8301169050919050565b7f596f752063616e2774206d696e74206d6f7265207468616e203320436f6f6c4260008201527f65616e7a00000000000000000000000000000000000000000000000000000000602082015250565b7f455243373231456e756d657261626c653a206f776e657220696e646578206f7560008201527f74206f6620626f756e6473000000000000000000000000000000000000000000602082015250565b7f4552433732313a207472616e7366657220746f206e6f6e20455243373231526560008201527f63656976657220696d706c656d656e7465720000000000000000000000000000602082015250565b7f4f776e61626c653a206e6577206f776e657220697320746865207a65726f206160008201527f6464726573730000000000000000000000000000000000000000000000000000602082015250565b7f4552433732313a207472616e736665722066726f6d20696e636f72726563742060008201527f6f776e6572000000000000000000000000000000000000000000000000000000602082015250565b7f4552433732313a20746f6b656e20616c7265616479206d696e74656400000000600082015250565b7f4552433732313a207472616e7366657220746f20746865207a65726f2061646460008201527f7265737300000000000000000000000000000000000000000000000000000000602082015250565b7f4552433732313a20617070726f766520746f2063616c6c657200000000000000600082015250565b7f4552433732313a206f70657261746f7220717565727920666f72206e6f6e657860008201527f697374656e7420746f6b656e0000000000000000000000000000000000000000602082015250565b7f4552433732313a20617070726f76652063616c6c6572206973206e6f74206f7760008201527f6e6572206e6f7220617070726f76656420666f7220616c6c0000000000000000602082015250565b7f596f75206d696e7420746f6f206d616e79000000000000000000000000000000600082015250565b7f4552433732313a2062616c616e636520717565727920666f7220746865207a6560008201527f726f206164647265737300000000000000000000000000000000000000000000602082015250565b7f4552433732313a206f776e657220717565727920666f72206e6f6e657869737460008201527f656e7420746f6b656e0000000000000000000000000000000000000000000000602082015250565b7f57726f6e672076616c7565206f66206574686572000000000000000000000000600082015250565b7f4552433732313a206d696e7420746f20746865207a65726f2061646472657373600082015250565b7f41756374696f6e20686173206e6f742073746172746564000000000000000000600082015250565b7f4552433732313a20617070726f76656420717565727920666f72206e6f6e657860008201527f697374656e7420746f6b656e0000000000000000000000000000000000000000602082015250565b7f4f776e61626c653a2063616c6c6572206973206e6f7420746865206f776e6572600082015250565b7f41756374696f6e2074696d652063616e27742062652061626f7665203620686f60008201527f7572730000000000000000000000000000000000000000000000000000000000602082015250565b7f4552433732314d657461646174613a2055524920717565727920666f72206e6f60008201527f6e6578697374656e7420746f6b656e0000000000000000000000000000000000602082015250565b7f4552433732313a20617070726f76616c20746f2063757272656e74206f776e6560008201527f7200000000000000000000000000000000000000000000000000000000000000602082015250565b7f4552433732313a207472616e736665722063616c6c6572206973206e6f74206f60008201527f776e6572206e6f7220617070726f766564000000000000000000000000000000602082015250565b7f455243373231456e756d657261626c653a20676c6f62616c20696e646578206f60008201527f7574206f6620626f756e64730000000000000000000000000000000000000000602082015250565b61478581613f0d565b811461479057600080fd5b50565b61479c81613f1f565b81146147a757600080fd5b50565b6147b381613f2b565b81146147be57600080fd5b50565b6147ca81613f77565b81146147d557600080fd5b5056fea2646970667358221220f0c910f58682c8eadbb6f4a2ae1156d7d5b2953bc25cf3a6509dec92959b869364736f6c63430008040033",
  "linkReferences": {},
  "deployedLinkReferences": {}
}